{
  "contractName": "PredictionMarket",
  "abi": [
    {
      "inputs": [
        {
          "internalType": "address",
          "name": "_oracle",
          "type": "address"
        }
      ],
      "stateMutability": "nonpayable",
      "type": "constructor"
    },
    {
      "inputs": [],
      "name": "Oracle",
      "outputs": [
        {
          "internalType": "address",
          "name": "",
          "type": "address"
        }
      ],
      "stateMutability": "view",
      "type": "function",
      "constant": true
    },
    {
      "inputs": [
        {
          "internalType": "enum PredictionMarket.Side",
          "name": "",
          "type": "uint8"
        }
      ],
      "name": "bets",
      "outputs": [
        {
          "internalType": "uint256",
          "name": "",
          "type": "uint256"
        }
      ],
      "stateMutability": "view",
      "type": "function",
      "constant": true
    },
    {
      "inputs": [
        {
          "internalType": "address",
          "name": "",
          "type": "address"
        },
        {
          "internalType": "enum PredictionMarket.Side",
          "name": "",
          "type": "uint8"
        }
      ],
      "name": "betsPerGambler",
      "outputs": [
        {
          "internalType": "uint256",
          "name": "",
          "type": "uint256"
        }
      ],
      "stateMutability": "view",
      "type": "function",
      "constant": true
    },
    {
      "inputs": [],
      "name": "electionFinished",
      "outputs": [
        {
          "internalType": "bool",
          "name": "",
          "type": "bool"
        }
      ],
      "stateMutability": "view",
      "type": "function",
      "constant": true
    },
    {
      "inputs": [],
      "name": "result",
      "outputs": [
        {
          "internalType": "enum PredictionMarket.Side",
          "name": "winner",
          "type": "uint8"
        },
        {
          "internalType": "enum PredictionMarket.Side",
          "name": "loser",
          "type": "uint8"
        }
      ],
      "stateMutability": "view",
      "type": "function",
      "constant": true
    },
    {
      "inputs": [
        {
          "internalType": "enum PredictionMarket.Side",
          "name": "_side",
          "type": "uint8"
        }
      ],
      "name": "placeBet",
      "outputs": [],
      "stateMutability": "payable",
      "type": "function",
      "payable": true
    },
    {
      "inputs": [],
      "name": "withdrawal",
      "outputs": [],
      "stateMutability": "nonpayable",
      "type": "function"
    },
    {
      "inputs": [
        {
          "internalType": "enum PredictionMarket.Side",
          "name": "_winner",
          "type": "uint8"
        },
        {
          "internalType": "enum PredictionMarket.Side",
          "name": "_loser",
          "type": "uint8"
        }
      ],
      "name": "bettingResult",
      "outputs": [],
      "stateMutability": "nonpayable",
      "type": "function"
    }
  ],
  "bytecode": "0x608060405234801561001057600080fd5b50604051610a18380380610a188339818101604052602081101561003357600080fd5b8101908080519060200190929190505050806000806101000a81548173ffffffffffffffffffffffffffffffffffffffff021916908373ffffffffffffffffffffffffffffffffffffffff16021790555050610984806100946000396000f3fe60806040526004361061007b5760003560e01c80639d5a37391161004e5780639d5a373914610196578063beab6e7e14610208578063d4e9329214610235578063f24a534e1461024c5761007b565b8063430468441461008057806365372147146100b15780637e0ecc00146100f95780638df108811461014b575b600080fd5b6100af6004803603602081101561009657600080fd5b81019080803560ff16906020019092919050505061028d565b005b3480156100bd57600080fd5b506100c66103c4565b604051808360018111156100d657fe5b81526020018260018111156100e757fe5b81526020019250505060405180910390f35b34801561010557600080fd5b506101356004803603602081101561011c57600080fd5b81019080803560ff1690602001909291905050506103f0565b6040518082815260200191505060405180910390f35b34801561015757600080fd5b506101946004803603604081101561016e57600080fd5b81019080803560ff169060200190929190803560ff169060200190929190505050610408565b005b3480156101a257600080fd5b506101f2600480360360408110156101b957600080fd5b81019080803573ffffffffffffffffffffffffffffffffffffffff169060200190929190803560ff1690602001909291905050506105a0565b6040518082815260200191505060405180910390f35b34801561021457600080fd5b5061021d6105c5565b60405180821515815260200191505060405180910390f35b34801561024157600080fd5b5061024a6105d8565b005b34801561025857600080fd5b506102616108e2565b604051808273ffffffffffffffffffffffffffffffffffffffff16815260200191505060405180910390f35b60001515600260009054906101000a900460ff16151514610316576040517f08c379a00000000000000000000000000000000000000000000000000000000081526004018080602001828103825260148152602001807f54696d6520746f20766f7465206973204f76657200000000000000000000000081525060200191505060405180910390fd5b346003600083600181111561032757fe5b600181111561033257fe5b81526020019081526020016000206000828254019250508190555034600460003373ffffffffffffffffffffffffffffffffffffffff1673ffffffffffffffffffffffffffffffffffffffff168152602001908152602001600020600083600181111561039b57fe5b60018111156103a657fe5b81526020019081526020016000206000828254019250508190555050565b60018060000160009054906101000a900460ff16908060000160019054906101000a900460ff16905082565b60036020528060005260406000206000915090505481565b60008054906101000a900473ffffffffffffffffffffffffffffffffffffffff1673ffffffffffffffffffffffffffffffffffffffff163373ffffffffffffffffffffffffffffffffffffffff16146104ac576040517f08c379a00000000000000000000000000000000000000000000000000000000081526004018080602001828103825260258152602001806109076025913960400191505060405180910390fd5b60001515600260009054906101000a900460ff16151514610535576040517f08c379a000000000000000000000000000000000000000000000000000000000815260040180806020018281038252601b8152602001807f566f74696e67206973207374696c6c206f6e20676f696e672e2e2e000000000081525060200191505060405180910390fd5b81600160000160006101000a81548160ff0219169083600181111561055657fe5b021790555080600160000160016101000a81548160ff0219169083600181111561057c57fe5b02179055506001600260006101000a81548160ff0219169083151502179055505050565b6004602052816000526040600020602052806000526040600020600091509150505481565b600260009054906101000a900460ff1681565b60011515600260009054906101000a900460ff16151514610661576040517f08c379a000000000000000000000000000000000000000000000000000000000815260040180806020018281038252601b8152602001807f566f74696e67206973207374696c6c206f6e20676f696e672e2e2e000000000081525060200191505060405180910390fd5b6000600460003373ffffffffffffffffffffffffffffffffffffffff1673ffffffffffffffffffffffffffffffffffffffff1681526020019081526020016000206000600160000160009054906101000a900460ff1660018111156106c257fe5b60018111156106cd57fe5b815260200190815260200160002054905060008111610737576040517f08c379a000000000000000000000000000000000000000000000000000000000815260040180806020018281038252602381526020018061092c6023913960400191505060405180910390fd5b600060036000600160000160009054906101000a900460ff16600181111561075b57fe5b600181111561076657fe5b8152602001908152602001600020548260036000600160000160019054906101000a900460ff16600181111561079857fe5b60018111156107a357fe5b81526020019081526020016000205402816107ba57fe5b04820190506000600460003373ffffffffffffffffffffffffffffffffffffffff1673ffffffffffffffffffffffffffffffffffffffff168152602001908152602001600020600080600181111561080e57fe5b600181111561081957fe5b8152602001908152602001600020819055506000600460003373ffffffffffffffffffffffffffffffffffffffff1673ffffffffffffffffffffffffffffffffffffffff168152602001908152602001600020600060018081111561087a57fe5b600181111561088557fe5b8152602001908152602001600020819055503373ffffffffffffffffffffffffffffffffffffffff166108fc829081150290604051600060405180830381858888f193505050501580156108dd573d6000803e3d6000fd5b505050565b60008054906101000a900473ffffffffffffffffffffffffffffffffffffffff168156fe4f6e6c7920746865204465706c6f79657220686176652061636365737320746f2074686973596f7520646964206e6f74206861766520616e792077696e6e696e67206265742e2e2ea26469706673582212206b4c7d4c7cf57cc2df9c49a8f9511f2efa9f6764b4dcd7aa5cef8ee1cf92def164736f6c63430007030033",
  "immutableReferences": {},
  "source": "pragma solidity ^0.7.3;\r\n\r\n/**\r\n * The PredictionMarket contract does this and that...\r\n */\r\ncontract PredictionMarket {\r\n\r\n  address public Oracle;\r\n  enum Side { Biden, Trump }\r\n  struct Result {\r\n    Side winner;\r\n    Side loser;\r\n  }\r\n\r\n// an instance of the struct\r\n  Result public result;\r\n  \r\n  bool public electionFinished;\r\n\r\n  //mapping of the Side of the Electorate\r\n  mapping (Side => uint) public bets;\r\n\r\n  //mapping of each gambler to the nexted mapping of the Side and the amount placed\r\n  mapping (address => mapping (Side => uint)) public betsPerGambler;\r\n\r\n  constructor(address _oracle) {\r\n    Oracle = _oracle;\r\n  }\r\n\r\n function placeBet (Side _side) public payable {\r\n\r\n  //require that the time for voting is still ongoing\r\n   require (electionFinished == false, 'Time to vote is Over');\r\n\r\n   //increamentng the bet by the amount that was placed\r\n   bets[_side] += msg.value;\r\n\r\n   //increamenting the amount that have been spent on the bet\r\n   betsPerGambler[msg.sender][_side] += msg.value;\r\n }\r\n\r\n function withdrawal() public {\r\n  \r\n    //require that election must end before anyone will be able to withdraw\r\n    require (electionFinished == true, 'Voting is still on going...');\r\n\r\n    //referencing the gambler address in the winners of the election..\r\n    uint gamblerBet = betsPerGambler[msg.sender][result.winner];\r\n\r\n    //require that the gambler must place a bet greater than zero\r\n    require (gamblerBet > 0, 'You did not have any winning bet...');\r\n\r\n    //calculating the gain of the gambler\r\n    uint gain = gamblerBet + bets[result.loser] * gamblerBet / bets[result.winner];\r\n\r\n    // To update the bet per gamble so as to withdraw all the winning price, to avoid multiple withdrawal\r\n    betsPerGambler[msg.sender][Side.Biden] = 0;\r\n    betsPerGambler[msg.sender][Side.Trump] = 0;\r\n\r\n    //To transfer the winning Gain\r\n    msg.sender.transfer(gain);\r\n  }\r\n\r\n function bettingResult(Side _winner, Side  _loser) public{\r\n  //Require only the deployer should have access to this..\r\n  require (msg.sender == Oracle, 'Only the Deployer have access to this');\r\n\r\n  //Require that the ELection must be over before the deployer can terminate it..\r\n  require (electionFinished == false, 'Voting is still on going...');\r\n\r\n  //Updating the winner, the loser and election must end first...\r\n  result.winner = _winner;\r\n  result.loser = _loser;\r\n  electionFinished = true;\r\n }\r\n}\r\n",
  "sourcePath": "C:/Users/ENCRYPTION.001/Desktop/Projects/ElectionPrediction Market/contracts/PredictionMarket.sol",
  "compiler": {
    "name": "solc",
    "version": "0.7.3+commit.9bfce1f6.Emscripten.clang"
  },
  "schemaVersion": "3.3.1",
  "updatedAt": "2020-10-27T02:28:17.535Z",
  "networkType": "ethereum",
  "devdoc": {
    "kind": "dev",
    "methods": {},
    "version": 1
  },
  "userdoc": {
    "kind": "user",
    "methods": {},
    "notice": "The PredictionMarket contract does this and that...",
    "version": 1
  }
}